{"abi":[{"type":"constructor","inputs":[],"stateMutability":"nonpayable"},{"type":"function","name":"DEFAULT_ADMIN_ROLE","inputs":[],"outputs":[{"name":"","type":"bytes32","internalType":"bytes32"}],"stateMutability":"view"},{"type":"function","name":"PRICE_DECIMALS","inputs":[],"outputs":[{"name":"","type":"uint256","internalType":"uint256"}],"stateMutability":"view"},{"type":"function","name":"PRICE_UPDATER_ROLE","inputs":[],"outputs":[{"name":"","type":"bytes32","internalType":"bytes32"}],"stateMutability":"view"},{"type":"function","name":"STRATEGY_CONTROLLER_ROLE","inputs":[],"outputs":[{"name":"","type":"bytes32","internalType":"bytes32"}],"stateMutability":"view"},{"type":"function","name":"addToken","inputs":[{"name":"token","type":"address","internalType":"contract IERC20"},{"name":"decimals","type":"uint8","internalType":"uint8"},{"name":"initialPrice","type":"uint256","internalType":"uint256"},{"name":"volatilityThreshold","type":"uint256","internalType":"uint256"},{"name":"strategy","type":"address","internalType":"contract IStrategy"}],"outputs":[],"stateMutability":"nonpayable"},{"type":"function","name":"convertFromUnitOfAccount","inputs":[{"name":"token","type":"address","internalType":"contract IERC20"},{"name":"amount","type":"uint256","internalType":"uint256"}],"outputs":[{"name":"","type":"uint256","internalType":"uint256"}],"stateMutability":"view"},{"type":"function","name":"convertToUnitOfAccount","inputs":[{"name":"token","type":"address","internalType":"contract IERC20"},{"name":"amount","type":"uint256","internalType":"uint256"}],"outputs":[{"name":"","type":"uint256","internalType":"uint256"}],"stateMutability":"view"},{"type":"function","name":"delegateNodes","inputs":[{"name":"nodeIds","type":"uint256[]","internalType":"uint256[]"},{"name":"operators","type":"address[]","internalType":"address[]"},{"name":"approverSignatureAndExpiries","type":"tuple[]","internalType":"struct ISignatureUtils.SignatureWithExpiry[]","components":[{"name":"signature","type":"bytes","internalType":"bytes"},{"name":"expiry","type":"uint256","internalType":"uint256"}]},{"name":"approverSalts","type":"bytes32[]","internalType":"bytes32[]"}],"outputs":[],"stateMutability":"nonpayable"},{"type":"function","name":"delegationManager","inputs":[],"outputs":[{"name":"","type":"address","internalType":"contract IDelegationManager"}],"stateMutability":"view"},{"type":"function","name":"getRoleAdmin","inputs":[{"name":"role","type":"bytes32","internalType":"bytes32"}],"outputs":[{"name":"","type":"bytes32","internalType":"bytes32"}],"stateMutability":"view"},{"type":"function","name":"getStakedAssetBalance","inputs":[{"name":"asset","type":"address","internalType":"contract IERC20"}],"outputs":[{"name":"","type":"uint256","internalType":"uint256"}],"stateMutability":"view"},{"type":"function","name":"getStakedAssetBalanceNode","inputs":[{"name":"asset","type":"address","internalType":"contract IERC20"},{"name":"nodeId","type":"uint256","internalType":"uint256"}],"outputs":[{"name":"","type":"uint256","internalType":"uint256"}],"stateMutability":"view"},{"type":"function","name":"getSupportedTokens","inputs":[],"outputs":[{"name":"","type":"address[]","internalType":"contract IERC20[]"}],"stateMutability":"view"},{"type":"function","name":"getTokenInfo","inputs":[{"name":"token","type":"address","internalType":"contract IERC20"}],"outputs":[{"name":"","type":"tuple","internalType":"struct ILiquidTokenManager.TokenInfo","components":[{"name":"decimals","type":"uint256","internalType":"uint256"},{"name":"pricePerUnit","type":"uint256","internalType":"uint256"},{"name":"volatilityThreshold","type":"uint256","internalType":"uint256"}]}],"stateMutability":"view"},{"type":"function","name":"getTokenStrategy","inputs":[{"name":"asset","type":"address","internalType":"contract IERC20"}],"outputs":[{"name":"","type":"address","internalType":"contract IStrategy"}],"stateMutability":"view"},{"type":"function","name":"grantRole","inputs":[{"name":"role","type":"bytes32","internalType":"bytes32"},{"name":"account","type":"address","internalType":"address"}],"outputs":[],"stateMutability":"nonpayable"},{"type":"function","name":"hasRole","inputs":[{"name":"role","type":"bytes32","internalType":"bytes32"},{"name":"account","type":"address","internalType":"address"}],"outputs":[{"name":"","type":"bool","internalType":"bool"}],"stateMutability":"view"},{"type":"function","name":"initialize","inputs":[{"name":"init","type":"tuple","internalType":"struct ILiquidTokenManager.Init","components":[{"name":"assets","type":"address[]","internalType":"contract IERC20[]"},{"name":"tokenInfo","type":"tuple[]","internalType":"struct ILiquidTokenManager.TokenInfo[]","components":[{"name":"decimals","type":"uint256","internalType":"uint256"},{"name":"pricePerUnit","type":"uint256","internalType":"uint256"},{"name":"volatilityThreshold","type":"uint256","internalType":"uint256"}]},{"name":"strategies","type":"address[]","internalType":"contract IStrategy[]"},{"name":"liquidToken","type":"address","internalType":"contract ILiquidToken"},{"name":"strategyManager","type":"address","internalType":"contract IStrategyManager"},{"name":"delegationManager","type":"address","internalType":"contract IDelegationManager"},{"name":"stakerNodeCoordinator","type":"address","internalType":"contract IStakerNodeCoordinator"},{"name":"initialOwner","type":"address","internalType":"address"},{"name":"strategyController","type":"address","internalType":"address"},{"name":"priceUpdater","type":"address","internalType":"address"}]}],"outputs":[],"stateMutability":"nonpayable"},{"type":"function","name":"liquidToken","inputs":[],"outputs":[{"name":"","type":"address","internalType":"contract ILiquidToken"}],"stateMutability":"view"},{"type":"function","name":"removeToken","inputs":[{"name":"token","type":"address","internalType":"contract IERC20"}],"outputs":[],"stateMutability":"nonpayable"},{"type":"function","name":"renounceRole","inputs":[{"name":"role","type":"bytes32","internalType":"bytes32"},{"name":"callerConfirmation","type":"address","internalType":"address"}],"outputs":[],"stateMutability":"nonpayable"},{"type":"function","name":"revokeRole","inputs":[{"name":"role","type":"bytes32","internalType":"bytes32"},{"name":"account","type":"address","internalType":"address"}],"outputs":[],"stateMutability":"nonpayable"},{"type":"function","name":"setVolatilityThreshold","inputs":[{"name":"asset","type":"address","internalType":"contract IERC20"},{"name":"newThreshold","type":"uint256","internalType":"uint256"}],"outputs":[],"stateMutability":"nonpayable"},{"type":"function","name":"stakeAssetsToNode","inputs":[{"name":"nodeId","type":"uint256","internalType":"uint256"},{"name":"assets","type":"address[]","internalType":"contract IERC20[]"},{"name":"amounts","type":"uint256[]","internalType":"uint256[]"}],"outputs":[],"stateMutability":"nonpayable"},{"type":"function","name":"stakeAssetsToNodes","inputs":[{"name":"allocations","type":"tuple[]","internalType":"struct ILiquidTokenManager.NodeAllocation[]","components":[{"name":"nodeId","type":"uint256","internalType":"uint256"},{"name":"assets","type":"address[]","internalType":"contract IERC20[]"},{"name":"amounts","type":"uint256[]","internalType":"uint256[]"}]}],"outputs":[],"stateMutability":"nonpayable"},{"type":"function","name":"stakerNodeCoordinator","inputs":[],"outputs":[{"name":"","type":"address","internalType":"contract IStakerNodeCoordinator"}],"stateMutability":"view"},{"type":"function","name":"strategyManager","inputs":[],"outputs":[{"name":"","type":"address","internalType":"contract IStrategyManager"}],"stateMutability":"view"},{"type":"function","name":"supportedTokens","inputs":[{"name":"","type":"uint256","internalType":"uint256"}],"outputs":[{"name":"","type":"address","internalType":"contract IERC20"}],"stateMutability":"view"},{"type":"function","name":"supportsInterface","inputs":[{"name":"interfaceId","type":"bytes4","internalType":"bytes4"}],"outputs":[{"name":"","type":"bool","internalType":"bool"}],"stateMutability":"view"},{"type":"function","name":"tokenIsSupported","inputs":[{"name":"token","type":"address","internalType":"contract IERC20"}],"outputs":[{"name":"","type":"bool","internalType":"bool"}],"stateMutability":"view"},{"type":"function","name":"tokenStrategies","inputs":[{"name":"","type":"address","internalType":"contract IERC20"}],"outputs":[{"name":"","type":"address","internalType":"contract IStrategy"}],"stateMutability":"view"},{"type":"function","name":"tokens","inputs":[{"name":"","type":"address","internalType":"contract IERC20"}],"outputs":[{"name":"decimals","type":"uint256","internalType":"uint256"},{"name":"pricePerUnit","type":"uint256","internalType":"uint256"},{"name":"volatilityThreshold","type":"uint256","internalType":"uint256"}],"stateMutability":"view"},{"type":"function","name":"undelegateNodes","inputs":[{"name":"nodeIds","type":"uint256[]","internalType":"uint256[]"}],"outputs":[],"stateMutability":"nonpayable"},{"type":"function","name":"updatePrice","inputs":[{"name":"token","type":"address","internalType":"contract IERC20"},{"name":"newPrice","type":"uint256","internalType":"uint256"}],"outputs":[],"stateMutability":"nonpayable"},{"type":"event","name":"AssetsDepositedToEigenlayer","inputs":[{"name":"assets","type":"address[]","indexed":false,"internalType":"contract IERC20[]"},{"name":"amounts","type":"uint256[]","indexed":false,"internalType":"uint256[]"},{"name":"strategies","type":"address[]","indexed":false,"internalType":"contract IStrategy[]"},{"name":"depositor","type":"address","indexed":true,"internalType":"address"}],"anonymous":false},{"type":"event","name":"AssetsStakedToNode","inputs":[{"name":"nodeId","type":"uint256","indexed":true,"internalType":"uint256"},{"name":"assets","type":"address[]","indexed":false,"internalType":"contract IERC20[]"},{"name":"amounts","type":"uint256[]","indexed":false,"internalType":"uint256[]"},{"name":"staker","type":"address","indexed":true,"internalType":"address"}],"anonymous":false},{"type":"event","name":"Initialized","inputs":[{"name":"version","type":"uint64","indexed":false,"internalType":"uint64"}],"anonymous":false},{"type":"event","name":"NodeDelegated","inputs":[{"name":"nodeId","type":"uint256","indexed":false,"internalType":"uint256"},{"name":"operator","type":"address","indexed":true,"internalType":"address"}],"anonymous":false},{"type":"event","name":"NodeUndelegated","inputs":[{"name":"nodeId","type":"uint256","indexed":false,"internalType":"uint256"},{"name":"operator","type":"address","indexed":true,"internalType":"address"}],"anonymous":false},{"type":"event","name":"RoleAdminChanged","inputs":[{"name":"role","type":"bytes32","indexed":true,"internalType":"bytes32"},{"name":"previousAdminRole","type":"bytes32","indexed":true,"internalType":"bytes32"},{"name":"newAdminRole","type":"bytes32","indexed":true,"internalType":"bytes32"}],"anonymous":false},{"type":"event","name":"RoleGranted","inputs":[{"name":"role","type":"bytes32","indexed":true,"internalType":"bytes32"},{"name":"account","type":"address","indexed":true,"internalType":"address"},{"name":"sender","type":"address","indexed":true,"internalType":"address"}],"anonymous":false},{"type":"event","name":"RoleRevoked","inputs":[{"name":"role","type":"bytes32","indexed":true,"internalType":"bytes32"},{"name":"account","type":"address","indexed":true,"internalType":"address"},{"name":"sender","type":"address","indexed":true,"internalType":"address"}],"anonymous":false},{"type":"event","name":"TokenAdded","inputs":[{"name":"token","type":"address","indexed":true,"internalType":"contract IERC20"},{"name":"decimals","type":"uint256","indexed":false,"internalType":"uint256"},{"name":"initialPrice","type":"uint256","indexed":false,"internalType":"uint256"},{"name":"volatilityThreshold","type":"uint256","indexed":false,"internalType":"uint256"},{"name":"strategy","type":"address","indexed":true,"internalType":"address"},{"name":"setter","type":"address","indexed":true,"internalType":"address"}],"anonymous":false},{"type":"event","name":"TokenPriceUpdated","inputs":[{"name":"token","type":"address","indexed":true,"internalType":"contract IERC20"},{"name":"oldPrice","type":"uint256","indexed":false,"internalType":"uint256"},{"name":"newPrice","type":"uint256","indexed":false,"internalType":"uint256"},{"name":"updater","type":"address","indexed":true,"internalType":"address"}],"anonymous":false},{"type":"event","name":"TokenRemoved","inputs":[{"name":"token","type":"address","indexed":true,"internalType":"contract IERC20"},{"name":"remover","type":"address","indexed":true,"internalType":"address"}],"anonymous":false},{"type":"event","name":"VolatilityCheckFailed","inputs":[{"name":"token","type":"address","indexed":true,"internalType":"contract IERC20"},{"name":"oldPrice","type":"uint256","indexed":false,"internalType":"uint256"},{"name":"newPrice","type":"uint256","indexed":false,"internalType":"uint256"},{"name":"changeRatio","type":"uint256","indexed":false,"internalType":"uint256"}],"anonymous":false},{"type":"event","name":"VolatilityThresholdUpdated","inputs":[{"name":"asset","type":"address","indexed":true,"internalType":"contract IERC20"},{"name":"oldThreshold","type":"uint256","indexed":false,"internalType":"uint256"},{"name":"newThreshold","type":"uint256","indexed":false,"internalType":"uint256"},{"name":"updatedBy","type":"address","indexed":true,"internalType":"address"}],"anonymous":false},{"type":"error","name":"AccessControlBadConfirmation","inputs":[]},{"type":"error","name":"AccessControlUnauthorizedAccount","inputs":[{"name":"account","type":"address","internalType":"address"},{"name":"neededRole","type":"bytes32","internalType":"bytes32"}]},{"type":"error","name":"AddressEmptyCode","inputs":[{"name":"target","type":"address","internalType":"address"}]},{"type":"error","name":"AddressInsufficientBalance","inputs":[{"name":"account","type":"address","internalType":"address"}]},{"type":"error","name":"FailedInnerCall","inputs":[]},{"type":"error","name":"InvalidDecimals","inputs":[]},{"type":"error","name":"InvalidInitialization","inputs":[]},{"type":"error","name":"InvalidNodeId","inputs":[{"name":"nodeId","type":"uint256","internalType":"uint256"}]},{"type":"error","name":"InvalidPrice","inputs":[]},{"type":"error","name":"InvalidStakingAmount","inputs":[{"name":"amount","type":"uint256","internalType":"uint256"}]},{"type":"error","name":"InvalidThreshold","inputs":[]},{"type":"error","name":"LengthMismatch","inputs":[{"name":"length1","type":"uint256","internalType":"uint256"},{"name":"length2","type":"uint256","internalType":"uint256"}]},{"type":"error","name":"MathOverflowedMulDiv","inputs":[]},{"type":"error","name":"NotInitializing","inputs":[]},{"type":"error","name":"ReentrancyGuardReentrantCall","inputs":[]},{"type":"error","name":"SafeERC20FailedOperation","inputs":[{"name":"token","type":"address","internalType":"address"}]},{"type":"error","name":"StrategyNotFound","inputs":[{"name":"asset","type":"address","internalType":"address"}]},{"type":"error","name":"TokenExists","inputs":[{"name":"asset","type":"address","internalType":"address"}]},{"type":"error","name":"TokenInUse","inputs":[{"name":"token","type":"address","internalType":"contract IERC20"}]},{"type":"error","name":"TokenNotSupported","inputs":[{"name":"token","type":"address","internalType":"contract IERC20"}]},{"type":"error","name":"VolatilityThresholdHit","inputs":[{"name":"token","type":"address","internalType":"contract IERC20"},{"name":"changeRatio","type":"uint256","internalType":"uint256"}]},{"type":"error","name":"ZeroAddress","inputs":[]}],"bytecode":{"object":"0x608080604052346100b9577ff0c57e16840df040f15088dc2f81fe391c3923bec73e23a9662efc9c229c6a009081549060ff8260401c166100aa57506001600160401b036002600160401b031982821601610065575b6040516131319081620000be8239f35b6001600160401b031990911681179091556040519081527fc7f505b2f371ae2175ee4913f4499e1f2633a7b5936321eed1cdaeb6115181d290602090a15f8080610055565b63f92ee8a960e01b8152600490fd5b5f80fdfe6080806040526004361015610012575f80fd5b5f3560e01c90816301ffc9a7146120aa57508063036b100c14611ee15780631b8fea4314611e175780631cbf960d14611da15780631f69565f14611cf0578063248a9ca314611cb75780632f2ff15d14611c6e578063316ffd4e146114c057806336568abe1461147957806339b70e38146114525780633b36f5c4146114195780633c8643f9146113bd578063457972de146111b05780635fa7b58414610dcc5780635ffcfdc714610d5457806366cd5dc714610d2c57806374f2ca0514610c2d578063833eaaf514610b9e5780639166a2711461091857806391d14854146108c35780639be323f414610889578063a217fddf1461086f578063c41dd95514610840578063c6255626146107fe578063d3c7c2c7146107c0578063d547741f14610775578063da5be02214610688578063e48603391461062b578063e7061950146105f1578063ea4d3c9b146105c9578063eea53cce14610213578063f1a640f8146101f8578063f8ba1b9e146101d05763fb8d810114610192575f80fd5b346101cc575f3660031901126101cc5760206040517fd96ba01d6560c2ab35f2940dd8d70c5f5fe06236c72674237120515918198fb08152f35b5f80fd5b346101cc575f3660031901126101cc576002546040516001600160a01b039091168152602090f35b346101cc575f3660031901126101cc57602060405160128152f35b346101cc5760803660031901126101cc576004356001600160401b0381116101cc57610243903690600401612209565b602435906001600160401b0382116101cc57366023830112156101cc5781600401359161026f8361218c565b9261027d604051948561216b565b8084526024602085019160051b830101913683116101cc57602401905b8282106105b1575050506044356001600160401b0381116101cc576102c3903690600401612267565b9290916064356001600160401b0381116101cc576102e5903690600401612267565b93906102ef612341565b8251948451868103610593575085870361057557858103610557575f5b86811061031557005b6002546001600160a01b031690602061032e82886126a7565b51602460405180958193630735424b60e11b835260048301525afa9182156104fc575f9261051b575b506001600160a01b0361036a82896126a7565b5116918982101561050757603e19863603018260051b87013512156101cc57610394828587612f35565b35906001600160a01b0381163b156101cc57604051632e90f1ed60e11b8152600481019490945260606024850152600583901b8701358701803591903603601e19018212156101cc576001600160401b038460051b8901358901830135116101cc57600584901b88013588018201803536036020909101136101cc5760406064860152600584901b88013588018201803560a487018190525f9487948593879360c49386938f93601f93919291906020018787013760058c901b84013590930190810135848101860187905260209091013560848501526044840192909252801991011681010301926001600160a01b03165af19182156104fc576104e8926104ed575b506104a381876126a7565b517f44f8a5ef027e039bb8a373f52e881f0c60120fc758371e619f28274c2a9562c560206001600160a01b036104d9858c6126a7565b511692604051908152a2612876565b61030c565b6104f690612158565b89610498565b6040513d5f823e3d90fd5b634e487b7160e01b5f52603260045260245ffd5b9091506020813d60201161054f575b816105376020938361216b565b810103126101cc57610548906127e1565b9089610357565b3d915061052a565b60449086604051916355c5b3e360e11b835260048301526024820152fd5b60448787604051916355c5b3e360e11b835260048301526024820152fd5b60449087604051916355c5b3e360e11b835260048301526024820152fd5b602080916105be84612113565b81520191019061029a565b346101cc575f3660031901126101cc576001546040516001600160a01b039091168152602090f35b346101cc5760203660031901126101cc576001600160a01b036106126120fd565b165f526004602052602060405f20541515604051908152f35b346101cc5760203660031901126101cc576001600160a01b0361064c6120fd565b165f52600460205260405f20805461068460026001840154930154604051938493846040919493926060820195825260208201520152565b0390f35b346101cc576020806003193601126101cc576001600160401b03906004358281116101cc576106bb903690600401612267565b91906106c5612341565b6106cd6129b6565b5f5b8381106106e95760015f805160206130bc83398151915255005b8060051b820135605e19833603018112156101cc578201906060823603126101cc57604051916107188361213d565b80358352848101358781116101cc5761073490369083016121a3565b928581019384526040820135938885116101cc5761075b61076b9361077096369101612209565b9182604082015251905190612aa4565b612876565b6106cf565b346101cc5760403660031901126101cc576107be600435610794612127565b90805f525f8051602061309c8339815191526020526107b9600160405f20015461239c565b61261a565b005b346101cc575f3660031901126101cc576106846040516107ea816107e381612952565b038261216b565b6040519182916020835260208301906122cc565b346101cc5760203660031901126101cc576004356006548110156101cc57610827602091612297565b905460405160039290921b1c6001600160a01b03168152f35b346101cc5760403660031901126101cc57602061086761085e6120fd565b60243590612f45565b604051908152f35b346101cc575f3660031901126101cc5760206040515f8152f35b346101cc575f3660031901126101cc5760206040517fd804c5bf32ccb7c8f087c7a3be22668464f9b4302aec069f690a2c9ba96fc0268152f35b346101cc5760403660031901126101cc576108dc612127565b6004355f525f8051602061309c83398151915260205260405f209060018060a01b03165f52602052602060ff60405f2054166040519015158152f35b346101cc5760203660031901126101cc576004356001600160401b0381116101cc57610948903690600401612267565b90610951612341565b5f5b82811061095c57005b6002546001600160a01b03166020610975838686612f35565b35602460405180948193630735424b60e11b835260048301525afa9081156104fc575f91610b64575b50600354600654906001600160a01b03166109b882612736565b915f5b818110610a7d575050803b156101cc57610a0b5f92918392604051948580948193639e363ce160e01b8352604060048401526109f960448401612952565b838103600319016024850152906129e5565b03925af180156104fc57610a6e575b506001600160a01b031690813b156101cc575f80926004604051809581936392ab89bb60e01b83525af19182156104fc57610a5a92610a5f575b50612876565b610953565b610a6890612158565b84610a54565b610a7790612158565b84610a1a565b610a8681612297565b90546001600160a01b0360039290921b1c81165f90815260056020526040902054168015610b3357604051630aa794bf60e31b81526001600160a01b03871660048201529190602090839060249082905afa80156104fc575f90610aff575b610afa9250610af482876126a7565b52612876565b6109bb565b506020823d602011610b2b575b81610b196020938361216b565b810103126101cc57610afa9151610ae5565b3d9150610b0c565b6024610b3e83612297565b9054604051634234b21b60e11b815260039290921b1c6001600160a01b03166004820152fd5b90506020813d602011610b96575b81610b7f6020938361216b565b810103126101cc57610b90906127e1565b8461099e565b3d9150610b72565b346101cc5760403660031901126101cc576001600160a01b03610bbf6120fd565b16805f52600460205260405f209060405190610bda8261213d565b82548083526002600185015494602085019586520154604084015215610c1557602061086784610c0a85516128af565b9051906024356128bd565b602490604051906306439c6b60e01b82526004820152fd5b346101cc5760203660031901126101cc57610c466120fd565b6001600160a01b038181165f81815260056020526040902054919291831615610d1457506004905f83600254166040519384809263a1174e7d60e01b82525afa9182156104fc575f92610cf0575b505f92835b8351851015610ce557610cb882610cb087876126a7565b511684612ff1565b8101809111610cd157610ccb9094612876565b93610c99565b634e487b7160e01b5f52601160045260245ffd5b602090604051908152f35b610d0d9192503d805f833e610d05818361216b565b8101906127f5565b9083610c94565b60249060405190634234b21b60e11b82526004820152fd5b346101cc575f3660031901126101cc576003546040516001600160a01b039091168152602090f35b346101cc5760603660031901126101cc576001600160401b036024358181116101cc57610d859036906004016121a3565b6044359182116101cc57610da0610db9923690600401612209565b90610da9612341565b610db16129b6565b600435612aa4565b60015f805160206130bc83398151915255005b346101cc576020806003193601126101cc57610de66120fd565b90610def612308565b60018060a01b039081831692835f526004825260405f2090604051610e138161213d565b8254908181526040600260019586810154888501520154910152156111975760405193604085018581106001600160401b038211176111835760405282855283368187013785610e628661269a565b526003918183541695604051966317d3208560e21b88528660048901526024975f8180610e918c8201876122cc565b0381855afa80156104fc57610ead915f91611169575b5061269a565b5161115157610ed9915f91604051808095819463d9fa608160e01b83528c60048401528d8301906122cc565b03915afa80156104fc57610ef3915f9161112f575061269a565b51611117576004905f83600254166040519384809263a1174e7d60e01b82525afa9182156104fc575f926110fb575b508151915f5b83811061106e575050505060069081545f5b818110610f9c575b886005885f60028a8583526004845282604081209181835582015501555260405f206001600160601b0360a01b815416905533907fbbe55b1ff108e23e5ff1a6f5d36946eec15ec0ca0ded2bfed4cdcf697ca904605f80a3005b8883610fa783612297565b905490881b1c1614610fc157610fbc90612876565b610f3a565b5f9791929394959697199283810190811161105b57610ff385610fe661101093612297565b9054908a1b1c1692612297565b819391549060031b9160018060a01b03809116831b921b19161790565b9055835490811561104857509260059695925f9592600295019261103384612297565b81939154921b1b191690555591868080610f42565b634e487b7160e01b5f9081526031600452fd5b82634e487b7160e01b5f5260116004525ffd5b6004888661107c84866126a7565b511660405192838092635d1ca63160e01b82525afa80156104fc575f906110cc575b6110a9915084612f45565b6110b4578601610f28565b604051634c9baa1560e11b8152600481018b90528990fd5b508881813d83116110f4575b6110e2818361216b565b810103126101cc576110a9905161109e565b503d6110d8565b6111109192503d805f833e610d05818361216b565b9088610f22565b604051634c9baa1560e11b8152600481018890528690fd5b61114b91503d805f833e611143818361216b565b810190612768565b89610ea7565b604051634c9baa1560e11b8152600481018a90528890fd5b61117d91503d805f833e611143818361216b565b8b610ea7565b634e487b7160e01b5f52604160045260245ffd5b6040516306439c6b60e01b815260048101869052602490fd5b346101cc5760403660031901126101cc576111c96120fd565b335f9081527fc256c2f634d6da12a4a07efdac9dc2d265baedd567b31337ba6cb23fe11b489960209081526040909120549091602435917fd96ba01d6560c2ab35f2940dd8d70c5f5fe06236c72674237120515918198fb09060ff161561139f57506001600160a01b03165f8181526004845260409020549091901561138657801561137557815f5260048352600160405f20015492831561137557825f5260048152600260405f2001546112ba575b825f526004815281600160405f2001556040519384528301527fd006d7efaadd9f842363572dcebe461eca100b118063d351c31ea3345a0a317460403393a3005b83821115611366576112cc8483612884565b670de0b6b3a764000090818102918183041490151715610cd157846112f091612891565b835f5260048252600260405f200154811161130b5750611279565b6040805186815260208101859052908101829052604491859182907f9e274992d0addc0efab8fb7762062fe9c0d3e0a786ba19b678156ad73a033fb990606090a260405191631bf5441b60e21b835260048301526024820152fd5b6113708285612884565b6112cc565b60405162bfc92160e01b8152600490fd5b6040516306439c6b60e01b815260048101839052602490fd5b6044906040519063e2517d3f60e01b82523360048301526024820152fd5b346101cc5760203660031901126101cc576001600160a01b03806113df6120fd565b1690811561140757815f52600560205260405f205416908115610d1457602082604051908152f35b60405163d92e233d60e01b8152600490fd5b346101cc5760203660031901126101cc5760206001600160a01b038061143d6120fd565b165f526005825260405f205416604051908152f35b346101cc575f3660031901126101cc575f546040516001600160a01b039091168152602090f35b346101cc5760403660031901126101cc57611492612127565b336001600160a01b038216036114ae576107be9060043561261a565b60405163334bd91960e11b8152600490fd5b346101cc576003196020368201126101cc576001600160401b03600435116101cc576101408091600435360301126101cc576040519081018181106001600160401b0382111761118357604052600435600401356001600160401b0381116101cc576115339060043691813501016121a3565b8152602460043501356001600160401b0381116101cc5760043501366023820112156101cc576004810135906115688261218c565b90611576604051928361216b565b8282526020820160246060809502830101913683116101cc57602401905b828210611c34575050506020830152604460043501356001600160401b0381116101cc5760043501366023820112156101cc576004810135906115d68261218c565b916115e4604051938461216b565b8083526024602084019160051b830101913683116101cc57602401905b828210611c1c575050506040830152600435606401356001600160a01b03811681036101cc5782820152600435608401356001600160a01b03811681036101cc57608083015260043560a401356001600160a01b03811681036101cc5760a083015260043560c401356001600160a01b03811681036101cc5760c083015261168d60e460043501612113565b60e08301526116a161010460043501612113565b6101008301526116b661012460043501612113565b6101208301525f805160206130dc83398151915254906001600160401b0382161580611c0e575b60016001600160401b038416149081611c04575b159081611bfb575b50611be95760016001600160401b03198316175f805160206130dc8339815191525560ff8260401c1615611bbd575b611730612708565b611738612708565b611740612708565b60015f805160206130bc8339815191525560808301516001600160a01b0316158015611ba8575b8015611b94575b8015611b7f575b8015611b69575b61140757825151602084015151808203611b4b575050825151604084015151808203611b4b57505060e08301516117bb906001600160a01b03166123ca565b506101008301516117d4906001600160a01b0316612455565b506101208301516117ed906001600160a01b0316612502565b50820151600380546001600160a01b03199081166001600160a01b039384161790915560c084015160028054831691841691909117905560808401515f8054831691841691909117815560a085015160018054909316931692909217905582515192905b8381106118bd5760ff8360401c161561186657005b68ff0000000000000000195f805160206130dc83398151915254165f805160206130dc833981519152557fc7f505b2f371ae2175ee4913f4499e1f2633a7b5936321eed1cdaeb6115181d2602060405160018152a1005b81516001600160a01b03906118d39083906126a7565b5116158015611b29575b611407576118ef8160208401516126a7565b515115611b175760406119068260208501516126a7565b510151151580611ad2575b611ac05781516001600160a01b039061192b9083906126a7565b51165f52600460205260405f2054611a91578061194e60019260208501516126a7565b51828060a01b036119608386516126a7565b51165f52600460205260026040805f2092805184556020810151868501550151910155818060a01b036119978260408601516126a7565b5116828060a01b036119aa8386516126a7565b51165f52600560205260405f20906001600160601b0360a01b8254161790556119e4828060a01b036119dd8386516126a7565b51166126bb565b818060a01b036119f58285516126a7565b5116611a058260208601516126a7565b5151906020611a1784828801516126a7565b510151907f16b06db6c9713b833a538658ead722c19db1c4e9408a99bb4e3ad62bf9996ac06040611a4c8660208a01516126a7565b510151868060a01b03611a638760408b01516126a7565b511693611a886040519283923398846040919493926060820195825260208201520152565b0390a401611851565b90516024916001600160a01b0391611aa991906126a7565b5160405163f49f099960e01b815291166004820152fd5b60405163aabd5a0960e01b8152600490fd5b50662386f26fc100006040611aeb8360208601516126a7565b51015110806119115750670de0b6b3a76400006040611b0e8360208601516126a7565b51015111611911565b604051630692acc560e51b8152600490fd5b5060408201516001600160a01b0390611b439083906126a7565b5116156118dd565b60449250604051916355c5b3e360e11b835260048301526024820152fd5b506101208301516001600160a01b03161561177c565b5060e08301516001600160a01b031615611775565b50828101516001600160a01b03161561176e565b5060a08301516001600160a01b031615611767565b68ffffffffffffffffff19821668010000000000000001175f805160206130dc83398151915255611728565b60405163f92ee8a960e01b8152600490fd5b905015846116f9565b303b1591506116f1565b5060ff8260401c16156116dd565b60208091611c2984612113565b815201910190611601565b84823603126101cc5760208591604051611c4d8161213d565b84358152828501358382015260408501356040820152815201910190611594565b346101cc5760403660031901126101cc576107be600435611c8d612127565b90805f525f8051602061309c833981519152602052611cb2600160405f20015461239c565b6125a9565b346101cc5760203660031901126101cc576004355f525f8051602061309c8339815191526020526020600160405f200154604051908152f35b346101cc5760203660031901126101cc57611d096120fd565b5f60408051611d178161213d565b8281526020810183905201526001600160a01b0316801561140757805f52600460205260405f2060405190611d4b8261213d565b8054908183526002600182015491602085019283520154916040840192835215611d88576060935060405192518352516020830152516040820152f35b6040516306439c6b60e01b815260048101859052602490fd5b346101cc5760403660031901126101cc576001600160a01b03611dc26120fd565b16805f52600460205260405f2060405191611ddc8361213d565b81548084526002600184015493602086019485520154604085015215610c1557602061086784611e0e855191516128af565b906024356128bd565b346101cc5760403660031901126101cc57611e306120fd565b60243590611e3c612308565b6001600160a01b0316801561140757805f52600460205260405f205415610c155781151580611ec0575b611ac057805f526004602052600260405f200154604051908152826020820152817ff8f0db3b5d1acc00708a69d58361dc010912e040c8d4f8963f75bf736516e33560403393a35f526004602052600260405f2001555f80f35b50662386f26fc10000821080611e665750670de0b6b3a76400008211611e66565b346101cc5760a03660031901126101cc57611efa6120fd565b6024359060ff82168092036101cc576084356001600160a01b03818116929160643591604435918590036101cc57611f30612308565b80841693845f526020916005835260405f205416612091578415611407578615611b175782156113755783151580612070575b611ac05785156114075760405163313ce56760e01b81528281600481895afa5f9181612037575b50612022575b50611fec90604051611fa18161213d565b88815260028482018681526040830190888252895f526004875260405f2093518455516001840155519101556005835260405f20876001600160601b0360a01b8254161790556126bb565b60405195865285015260408401527f16b06db6c9713b833a538658ead722c19db1c4e9408a99bb4e3ad62bf9996ac060603394a4005b60ff168015611b17578703611b175787611f90565b9091508381813d8311612069575b61204f818361216b565b810103126101cc575160ff811681036101cc579089611f8a565b503d612045565b50662386f26fc10000841080611f635750670de0b6b3a76400008411611f63565b60405163f49f099960e01b815260048101869052602490fd5b346101cc5760203660031901126101cc576004359063ffffffff60e01b82168092036101cc57602091637965db0b60e01b81149081156120ec575b5015158152f35b6301ffc9a760e01b149050836120e5565b600435906001600160a01b03821682036101cc57565b35906001600160a01b03821682036101cc57565b602435906001600160a01b03821682036101cc57565b606081019081106001600160401b0382111761118357604052565b6001600160401b03811161118357604052565b90601f801991011681019081106001600160401b0382111761118357604052565b6001600160401b0381116111835760051b60200190565b81601f820112156101cc578035916121ba8361218c565b926121c8604051948561216b565b808452602092838086019260051b8201019283116101cc578301905b8282106121f2575050505090565b8380916121fe84612113565b8152019101906121e4565b81601f820112156101cc578035916122208361218c565b9261222e604051948561216b565b808452602092838086019260051b8201019283116101cc578301905b828210612258575050505090565b8135815290830190830161224a565b9181601f840112156101cc578235916001600160401b0383116101cc576020808501948460051b0101116101cc57565b6006548110156105075760065f527ff652222313e28459528d920b65115c16c04f3efc82aaedc97be59f3f377c0d3f01905f90565b9081518082526020808093019301915f5b8281106122eb575050505090565b83516001600160a01b0316855293810193928101926001016122dd565b335f9081527fb7db2dd08fcb62d0c9e08c51941cae53c267786a0b75803fb7960902fc8ef97d602052604081205460ff161561139f5750565b335f9081527f37df822218fcaee7cde51d4f45157536d4cc7c7d03801a2f229c91ffc1ea9c1660205260409020547fd804c5bf32ccb7c8f087c7a3be22668464f9b4302aec069f690a2c9ba96fc0269060ff161561139f5750565b805f525f8051602061309c83398151915260205260405f20335f5260205260ff60405f2054161561139f5750565b6001600160a01b03165f8181527fb7db2dd08fcb62d0c9e08c51941cae53c267786a0b75803fb7960902fc8ef97d60205260408120549091905f8051602061309c8339815191529060ff16612450578280526020526040822081835260205260408220600160ff1982541617905533915f8051602061307c8339815191528180a4600190565b505090565b6001600160a01b03165f8181527f37df822218fcaee7cde51d4f45157536d4cc7c7d03801a2f229c91ffc1ea9c1660205260408120549091907fd804c5bf32ccb7c8f087c7a3be22668464f9b4302aec069f690a2c9ba96fc026905f8051602061309c8339815191529060ff166124fc578184526020526040832082845260205260408320600160ff198254161790555f8051602061307c833981519152339380a4600190565b50505090565b6001600160a01b03165f8181527fc256c2f634d6da12a4a07efdac9dc2d265baedd567b31337ba6cb23fe11b489960205260408120549091907fd96ba01d6560c2ab35f2940dd8d70c5f5fe06236c72674237120515918198fb0905f8051602061309c8339815191529060ff166124fc578184526020526040832082845260205260408320600160ff198254161790555f8051602061307c833981519152339380a4600190565b905f918083525f8051602061309c83398151915280602052604084209260018060a01b03169283855260205260ff604085205416155f146124fc578184526020526040832082845260205260408320600160ff198254161790555f8051602061307c833981519152339380a4600190565b905f918083525f8051602061309c83398151915280602052604084209260018060a01b03169283855260205260ff6040852054165f146124fc57818452602052604083208284526020526040832060ff1981541690557ff6391f5c32d9c69d2a47ea670b442974b53935d1edc7fd64eb21e047a839171b339380a4600190565b8051156105075760200190565b80518210156105075760209160051b010190565b60065468010000000000000000811015611183576126e28160016127049301600655612297565b815491936001600160a01b0360039290921b82811b19909316911690911b1790565b9055565b60ff5f805160206130dc8339815191525460401c161561272457565b604051631afcd79f60e31b8152600490fd5b906127408261218c565b61274d604051918261216b565b828152809261275e601f199161218c565b0190602036910137565b60209081818403126101cc578051906001600160401b0382116101cc57019180601f840112156101cc57825161279d8161218c565b936127ab604051958661216b565b818552838086019260051b8201019283116101cc578301905b8282106127d2575050505090565b815181529083019083016127c4565b51906001600160a01b03821682036101cc57565b60209081818403126101cc578051906001600160401b0382116101cc57019180601f840112156101cc57825161282a8161218c565b93612838604051958661216b565b818552838086019260051b8201019283116101cc578301905b82821061285f575050505090565b83809161286b846127e1565b815201910190612851565b5f198114610cd15760010190565b91908203918211610cd157565b811561289b570490565b634e487b7160e01b5f52601260045260245ffd5b604d8111610cd157600a0a90565b9091828202915f1984820993838086109503948086039514612942578483111561293057829109815f038216809204600280826003021880830282030280830282030280830282030280830282030280830282030280920290030293600183805f03040190848311900302920304170290565b60405163227bc15360e01b8152600490fd5b50509061294f9250612891565b90565b6006549081815260208091019160065f527ff652222313e28459528d920b65115c16c04f3efc82aaedc97be59f3f377c0d3f915f905b828210612996575050505090565b83546001600160a01b031685529384019360019384019390910190612988565b5f805160206130bc83398151915260028154146129d35760029055565b604051633ee5aeb560e01b8152600490fd5b9081518082526020808093019301915f5b828110612a04575050505090565b8351855293810193928101926001016129f6565b9091612a2f61294f936040845260408401906122cc565b9160208184039101526129e5565b90612a53612a62916060845260608401906122cc565b602093838203858501526129e5565b9060408183039101528180845192838152019301915f5b828110612a87575050505090565b83516001600160a01b031685529381019392810192600101612a79565b9190805191805191828403612eb457600254604051630735424b60e11b8152600481018790525f96909291602090849060249082906001600160a01b03165afa928315612ea9578793612e69575b50612afc8661218c565b93612b0a604051958661216b565b868552601f19612b198861218c565b01366020870137875b878110612df157506003546001600160a01b0316803b15612ded57886040518092634c69211160e01b8252818381612b5e888b60048401612a18565b03925af18015612de257612dcf575b50612b80612b7a88612736565b96612736565b96885b818110612c5f575050612bbf7f0e5e80da96ba63170c5e8df1b827c4b5cd08d747cd301536aad1a917d243907391604051918291339683612a18565b0390a36001600160a01b031693843b15612c5157604051636fc9f70d60e11b8152818180612bf286898960048501612a3d565b0381838a5af18015612c5457612c3d575b505090612c387f51a206831b339426847565f9ab7308ed1db311003fe45c5c5bd48db5391d4bdb939260405193849384612a3d565b0390a2565b612c478291612158565b612c515780612c03565b80fd5b6040513d84823e3d90fd5b6001600160a01b03612c7182876126a7565b5116612c7d828a6126a7565b52612c8881846126a7565b51612c93828b6126a7565b526001600160a01b03612ca682876126a7565b5116612cb282856126a7565b5160405163a9059cbb60e01b60208201526001600160a01b03891660248201526044808201929092529081526001600160401b036080820190811190821117611183578b81608082930160405260208151910182855af13d15612dc3573d6001600160401b038111612daf57612d4d918d9160405190612d3c6020601f19601f840116018361216b565b8152809260203d92013e5b83612ed2565b8051908115159182612d87575b5050612d6f5750612d6a90612876565b612b83565b60249060405190635274afe760e01b82526004820152fd5b8192509060209181010312612dab5760200151801590811503612dab575f80612d5a565b8b80fd5b634e487b7160e01b8d52604160045260248dfd5b612d4d90606090612d47565b612ddb90989198612158565b965f612b6d565b6040513d8b823e3d90fd5b8880fd5b6001600160a01b03612e0382866126a7565b5116612e0f82846126a7565b5115612e4757808a52600560205260408a20546001600160a01b0316908115610d14575090612e4291610af482896126a7565b612b22565b6024612e5383856126a7565b516040519063fdea5f4d60e01b82526004820152fd5b9092506020813d602011612ea1575b81612e856020938361216b565b81010312612e9d57612e96906127e1565b915f612af2565b8680fd5b3d9150612e78565b6040513d89823e3d90fd5b60448484604051916355c5b3e360e11b835260048301526024820152fd5b90612ef95750805115612ee757805190602001fd5b604051630a12f52160e11b8152600490fd5b81511580612f2c575b612f0a575090565b604051639996b31560e01b81526001600160a01b039091166004820152602490fd5b50803b15612f02565b91908110156105075760051b0190565b9060018060a01b0390818316915f9280845260056020528160408520541615610d1457506020906002541691602460405180948193630735424b60e11b835260048301525afa918215612fe5578092612fa4575b505061294f91612ff1565b9091506020823d8211612fdd575b81612fbf6020938361216b565b81010312612c51575090612fd561294f926127e1565b90915f612f99565b3d9150612fb2565b604051903d90823e3d90fd5b6001600160a01b039081165f81815260056020526040812054909390831692918315610d145750604051630aa794bf60e31b81529116600482015290602090829060249082905afa918215612fe557809261304b57505090565b9091506020823d8211613073575b816130666020938361216b565b81010312612c5157505190565b3d915061305956fe2f8788117e7eff1d82e926ec794901d17c78024a50270940304540a733656f0d02dd7bc7dec4dceedda775e58dd541e08a116c6c53815c0bd028192f7b6268009b779b17422d0df92223018b32b4d1fa46e071723d6817e2486d003becc55f00f0c57e16840df040f15088dc2f81fe391c3923bec73e23a9662efc9c229c6a00a2646970667358221220318879e2e785f3e0462bc4847501513d16dcca338f53c7ad49dfad3895d65cfc64736f6c63430008140033","linkReferences":{}},"methodIdentifiers":{"DEFAULT_ADMIN_ROLE()":"a217fddf","PRICE_DECIMALS()":"f1a640f8","PRICE_UPDATER_ROLE()":"fb8d8101","STRATEGY_CONTROLLER_ROLE()":"9be323f4","addToken(address,uint8,uint256,uint256,address)":"036b100c","convertFromUnitOfAccount(address,uint256)":"833eaaf5","convertToUnitOfAccount(address,uint256)":"1cbf960d","delegateNodes(uint256[],address[],(bytes,uint256)[],bytes32[])":"eea53cce","delegationManager()":"ea4d3c9b","getRoleAdmin(bytes32)":"248a9ca3","getStakedAssetBalance(address)":"74f2ca05","getStakedAssetBalanceNode(address,uint256)":"c41dd955","getSupportedTokens()":"d3c7c2c7","getTokenInfo(address)":"1f69565f","getTokenStrategy(address)":"3c8643f9","grantRole(bytes32,address)":"2f2ff15d","hasRole(bytes32,address)":"91d14854","initialize((address[],(uint256,uint256,uint256)[],address[],address,address,address,address,address,address,address))":"316ffd4e","liquidToken()":"66cd5dc7","removeToken(address)":"5fa7b584","renounceRole(bytes32,address)":"36568abe","revokeRole(bytes32,address)":"d547741f","setVolatilityThreshold(address,uint256)":"1b8fea43","stakeAssetsToNode(uint256,address[],uint256[])":"5ffcfdc7","stakeAssetsToNodes((uint256,address[],uint256[])[])":"da5be022","stakerNodeCoordinator()":"f8ba1b9e","strategyManager()":"39b70e38","supportedTokens(uint256)":"c6255626","supportsInterface(bytes4)":"01ffc9a7","tokenIsSupported(address)":"e7061950","tokenStrategies(address)":"3b36f5c4","tokens(address)":"e4860339","undelegateNodes(uint256[])":"9166a271","updatePrice(address,uint256)":"457972de"},"id":59}