{"abi":[{"type":"function","name":"DEFAULT_ADMIN_ROLE","inputs":[],"outputs":[{"name":"","type":"bytes32","internalType":"bytes32"}],"stateMutability":"view"},{"type":"function","name":"RATE_UPDATER_ROLE","inputs":[],"outputs":[{"name":"","type":"bytes32","internalType":"bytes32"}],"stateMutability":"view"},{"type":"function","name":"batchUpdateRates","inputs":[{"name":"tokens","type":"address[]","internalType":"contract IERC20[]"},{"name":"newRates","type":"uint256[]","internalType":"uint256[]"}],"outputs":[],"stateMutability":"nonpayable"},{"type":"function","name":"getRate","inputs":[{"name":"token","type":"address","internalType":"contract IERC20"}],"outputs":[{"name":"","type":"uint256","internalType":"uint256"}],"stateMutability":"view"},{"type":"function","name":"getRoleAdmin","inputs":[{"name":"role","type":"bytes32","internalType":"bytes32"}],"outputs":[{"name":"","type":"bytes32","internalType":"bytes32"}],"stateMutability":"view"},{"type":"function","name":"grantRole","inputs":[{"name":"role","type":"bytes32","internalType":"bytes32"},{"name":"account","type":"address","internalType":"address"}],"outputs":[],"stateMutability":"nonpayable"},{"type":"function","name":"hasRole","inputs":[{"name":"role","type":"bytes32","internalType":"bytes32"},{"name":"account","type":"address","internalType":"address"}],"outputs":[{"name":"","type":"bool","internalType":"bool"}],"stateMutability":"view"},{"type":"function","name":"initialize","inputs":[{"name":"init","type":"tuple","internalType":"struct ITokenRegistryOracle.Init","components":[{"name":"initialOwner","type":"address","internalType":"address"},{"name":"priceUpdater","type":"address","internalType":"address"},{"name":"liquidTokenManager","type":"address","internalType":"contract ILiquidTokenManager"}]}],"outputs":[],"stateMutability":"nonpayable"},{"type":"function","name":"liquidTokenManager","inputs":[],"outputs":[{"name":"","type":"address","internalType":"contract ILiquidTokenManager"}],"stateMutability":"view"},{"type":"function","name":"renounceRole","inputs":[{"name":"role","type":"bytes32","internalType":"bytes32"},{"name":"callerConfirmation","type":"address","internalType":"address"}],"outputs":[],"stateMutability":"nonpayable"},{"type":"function","name":"revokeRole","inputs":[{"name":"role","type":"bytes32","internalType":"bytes32"},{"name":"account","type":"address","internalType":"address"}],"outputs":[],"stateMutability":"nonpayable"},{"type":"function","name":"supportsInterface","inputs":[{"name":"interfaceId","type":"bytes4","internalType":"bytes4"}],"outputs":[{"name":"","type":"bool","internalType":"bool"}],"stateMutability":"view"},{"type":"function","name":"updateRate","inputs":[{"name":"token","type":"address","internalType":"contract IERC20"},{"name":"newRate","type":"uint256","internalType":"uint256"}],"outputs":[],"stateMutability":"nonpayable"},{"type":"event","name":"Initialized","inputs":[{"name":"version","type":"uint64","indexed":false,"internalType":"uint64"}],"anonymous":false},{"type":"event","name":"RateUpdated","inputs":[{"name":"token","type":"address","indexed":true,"internalType":"contract IERC20"},{"name":"newRate","type":"uint256","indexed":false,"internalType":"uint256"}],"anonymous":false},{"type":"event","name":"RoleAdminChanged","inputs":[{"name":"role","type":"bytes32","indexed":true,"internalType":"bytes32"},{"name":"previousAdminRole","type":"bytes32","indexed":true,"internalType":"bytes32"},{"name":"newAdminRole","type":"bytes32","indexed":true,"internalType":"bytes32"}],"anonymous":false},{"type":"event","name":"RoleGranted","inputs":[{"name":"role","type":"bytes32","indexed":true,"internalType":"bytes32"},{"name":"account","type":"address","indexed":true,"internalType":"address"},{"name":"sender","type":"address","indexed":true,"internalType":"address"}],"anonymous":false},{"type":"event","name":"RoleRevoked","inputs":[{"name":"role","type":"bytes32","indexed":true,"internalType":"bytes32"},{"name":"account","type":"address","indexed":true,"internalType":"address"},{"name":"sender","type":"address","indexed":true,"internalType":"address"}],"anonymous":false},{"type":"event","name":"TokenRateUpdated","inputs":[{"name":"token","type":"address","indexed":true,"internalType":"contract IERC20"},{"name":"oldRate","type":"uint256","indexed":false,"internalType":"uint256"},{"name":"newRate","type":"uint256","indexed":false,"internalType":"uint256"},{"name":"updater","type":"address","indexed":true,"internalType":"address"}],"anonymous":false},{"type":"error","name":"AccessControlBadConfirmation","inputs":[]},{"type":"error","name":"AccessControlUnauthorizedAccount","inputs":[{"name":"account","type":"address","internalType":"address"},{"name":"neededRole","type":"bytes32","internalType":"bytes32"}]},{"type":"error","name":"InvalidInitialization","inputs":[]},{"type":"error","name":"NotInitializing","inputs":[]}],"bytecode":{"object":"0x6080806040523461001657610bc3908161001b8239f35b5f80fdfe6080604081815260049081361015610015575f80fd5b5f92833560e01c90816301ffc9a7146105d957508063214ac8fa146104e757806321d26d75146104ac578063248a9ca3146104755780632f2ff15d1461044d57806336568abe1461040657806337cef7911461036b57806351b4005e1461034357806391d14854146102f0578063a217fddf146102d5578063b558d1ea1461029e578063d26b3e26146100fd5763d547741f146100b0575f80fd5b346100f957806003193601126100f9576100f591356100f060016100d2610662565b938387525f80516020610b6e83398151915260205286200154610759565b610969565b5080f35b8280fd5b5090346100f95760603660031901126100f95781519061011c8261068e565b610124610678565b825261012e610662565b602083019081526001600160a01b039060443590828216820361029a578585019182527ff0c57e16840df040f15088dc2f81fe391c3923bec73e23a9662efc9c229c6a009485549460ff86891c16159567ffffffffffffffff811680159081610292575b6001149081610288575b15908161027f575b506102705767ffffffffffffffff198116600117885586610251575b5060ff8754891c161561024357506101e7916101df8580935116610787565b505116610825565b505185546001600160a01b0319169116178455610202578280f35b805468ff00000000000000001916905551600181527fc7f505b2f371ae2175ee4913f4499e1f2633a7b5936321eed1cdaeb6115181d290602090a15f808280f35b8751631afcd79f60e31b8152fd5b68ffffffffffffffffff1916680100000000000000011787555f6101c0565b50875163f92ee8a960e01b8152fd5b9050155f6101a4565b303b15915061019c565b889150610192565b8680fd5b8382346102d1573660031901126102ce576102cb6102ba610678565b6102c26106e0565b60243590610a3e565b80f35b80fd5b5080fd5b8382346102d157816003193601126102d15751908152602090f35b5090346100f957816003193601126100f9578160209360ff92610311610662565b903582525f80516020610b6e83398151915286528282206001600160a01b039091168252855220549151911615158152f35b8382346102d157816003193601126102d157905490516001600160a01b039091168152602090f35b5082346102ce5760203660031901126102ce576060610388610678565b82548451631f69565f60e01b81526001600160a01b039283169681019690965285916024918391165afa9081156103fb5760209384926103cd575b5001519051908152f35b6103ee915060603d81116103f4575b6103e681836106be565b810190610a0d565b846103c3565b503d6103dc565b8251903d90823e3d90fd5b508290346102d157806003193601126102d157610421610662565b90336001600160a01b0383160361043e57506100f5919235610969565b5163334bd91960e11b81528390fd5b50346100f957806003193601126100f9576100f5913561047060016100d2610662565b6108e5565b5090346100f95760203660031901126100f957816020936001923581525f80516020610b6e83398151915285522001549051908152f35b8382346102d157816003193601126102d157602090517fdd35c6ca7643a0c47d5f41ad013ad746ed60a503609ddce9787a26d5702bf2db8152f35b5090346100f957816003193601126100f95767ffffffffffffffff9181358381116105d557610519903690840161062d565b90936024359081116105d157610532903690850161062d565b93909261053d6106e0565b84830361058e575050845b818110610553578580f35b61055e8183876109e9565b35906001600160a01b038216820361029a576105886001926105818388886109e9565b3590610a3e565b01610548565b906020606492519162461bcd60e51b8352820152601860248201527f4d69736d617463686564206172726179206c656e6774687300000000000000006044820152fd5b8580fd5b8480fd5b849084346100f95760203660031901126100f9573563ffffffff60e01b81168091036100f95760209250637965db0b60e01b811490811561061c575b5015158152f35b6301ffc9a760e01b14905083610615565b9181601f8401121561065e5782359167ffffffffffffffff831161065e576020808501948460051b01011161065e57565b5f80fd5b602435906001600160a01b038216820361065e57565b600435906001600160a01b038216820361065e57565b6060810190811067ffffffffffffffff8211176106aa57604052565b634e487b7160e01b5f52604160045260245ffd5b90601f8019910116810190811067ffffffffffffffff8211176106aa57604052565b335f9081527fea0231bd38408211af4c167687718afd00f9c5c30f6c076964f346467ebe7e6760205260409020547fdd35c6ca7643a0c47d5f41ad013ad746ed60a503609ddce9787a26d5702bf2db9060ff161561073b5750565b6044906040519063e2517d3f60e01b82523360048301526024820152fd5b805f525f80516020610b6e83398151915260205260405f20335f5260205260ff60405f2054161561073b5750565b6001600160a01b03165f8181527fb7db2dd08fcb62d0c9e08c51941cae53c267786a0b75803fb7960902fc8ef97d60205260408120549091905f80516020610b6e8339815191529060ff16610820578280526020526040822081835260205260408220600160ff1982541617905533917f2f8788117e7eff1d82e926ec794901d17c78024a50270940304540a733656f0d8180a4600190565b505090565b6001600160a01b03165f8181527fea0231bd38408211af4c167687718afd00f9c5c30f6c076964f346467ebe7e6760205260408120549091907fdd35c6ca7643a0c47d5f41ad013ad746ed60a503609ddce9787a26d5702bf2db905f80516020610b6e8339815191529060ff166108df578184526020526040832082845260205260408320600160ff198254161790557f2f8788117e7eff1d82e926ec794901d17c78024a50270940304540a733656f0d339380a4600190565b50505090565b905f918083525f80516020610b6e83398151915280602052604084209260018060a01b03169283855260205260ff604085205416155f146108df578184526020526040832082845260205260408320600160ff198254161790557f2f8788117e7eff1d82e926ec794901d17c78024a50270940304540a733656f0d339380a4600190565b905f918083525f80516020610b6e83398151915280602052604084209260018060a01b03169283855260205260ff6040852054165f146108df57818452602052604083208284526020526040832060ff1981541690557ff6391f5c32d9c69d2a47ea670b442974b53935d1edc7fd64eb21e047a839171b339380a4600190565b91908110156109f95760051b0190565b634e487b7160e01b5f52603260045260245ffd5b9081606091031261065e576040805191610a268361068e565b80518352602081015160208401520151604082015290565b60018060a01b035f928184541693604092835194631f69565f60e01b86521693846004820152606081602481895afa908115610b6357906020918391610b45575b50015194803b156102d15781809160448651809581936322bcb96f60e11b83528a60048401528860248401525af18015610b3957610aec575b5050907fab1ecf5598b86562161a1791b261323a87741a7a0271ba591bf46ac98faf64c291815194855260208501523393a3565b67ffffffffffffffff8211610b25575082527fab1ecf5598b86562161a1791b261323a87741a7a0271ba591bf46ac98faf64c25f610ab8565b634e487b7160e01b81526041600452602490fd5b508351903d90823e3d90fd5b610b5d915060603d81116103f4576103e681836106be565b5f610a7f565b84513d84823e3d90fdfe02dd7bc7dec4dceedda775e58dd541e08a116c6c53815c0bd028192f7b626800a264697066735822122018e2c944bcc52980558bce0bff79f88b02897cd259d288e762ec357c91998e0664736f6c63430008140033","linkReferences":{}},"methodIdentifiers":{"DEFAULT_ADMIN_ROLE()":"a217fddf","RATE_UPDATER_ROLE()":"21d26d75","batchUpdateRates(address[],uint256[])":"214ac8fa","getRate(address)":"37cef791","getRoleAdmin(bytes32)":"248a9ca3","grantRole(bytes32,address)":"2f2ff15d","hasRole(bytes32,address)":"91d14854","initialize((address,address,address))":"d26b3e26","liquidTokenManager()":"51b4005e","renounceRole(bytes32,address)":"36568abe","revokeRole(bytes32,address)":"d547741f","supportsInterface(bytes4)":"01ffc9a7","updateRate(address,uint256)":"b558d1ea"},"id":67}